:020000040800F2
:1000000000000824DD070008F5060008F7060008D0
:10001000F9060008FB060008FD06000800000000C5
:10002000000000000000000000000000511D00085A
:10003000FF06000800000000F11D0008551E000822
:100040002D0800082D0800082D0800082D080008BC
:100050002D0800082D0800082D0800082D080008AC
:100060002D0800082D0800082D0800082D0800089C
:100070002D0800082D0800082D0800082D0800088C
:100080002D0800082D0800082D0800082D0800087C
:100090002D0800082D0800082D0800082D0800086C
:1000A0002D080008010700082D0800082D08000889
:1000B0002D0800082D0800082D0800082D0800084C
:1000C0002D0800082D0800082D0800082D0800083C
:1000D0002D0800082D0800082D0800082D0800082C
:1000E0002D0800082D080008000000002D08000859
:1000F0002D0800082D0800082D0800082D0800080C
:100100002D0800082D0800082D0800082D080008FB
:100110002D0800082D0800082D0800082D080008EB
:100120002D0800082D0800082D0800082D080008DB
:100130002D0800082D0800082D0800082D080008CB
:1001400000000000000000000000000000000000AF
:100150002D0800082D0800082D0800082D080008AB
:100160002D0800082D0800082D0800082D0800089B
:100170002D0800082D0800082D0800082D0800088B
:100180002D0800082D0800082D0800082D0800087B
:100190002D0800082D0800082D0800082D0800086B
:1001A0002D0800082D0800082D0800082D0800085B
:1001B0002D0800082D0800082D0800082D0800084B
:1001C0002D0800082D0800082D0800082D0800083B
:1001D0002D0800082D0800082D0800082D0800082B
:1001E0002D0800082D0800082D0800082D0800081B
:1001F0002D0800082D0800082D0800082D0800080B
:100200002D0800082D0800082D0800082D080008FA
:100210002D0800082D0800082D0800082D080008EA
:100220002D0800082D0800082D0800080000000017
:100230002D0800082D080008000000002D08000807
:100240002D0800082D0800082D0800082D080008BA
:100250002D0800082D0800082D0800082D080008AA
:100260002D0800082D0800082D0800082D0800089A
:100270002D0800082D0800082D08000800000000C7
:100280002D0800082D0800082D08000800000000B7
:08029000000000002D08000829
:1002A00010B5054C237833B9044B13B10448AFF3B0
:1002B00000800123237010BD4404002400000000CE
:1002C000302C000808B5034B1BB103490348AFF3BA
:1002D000008008BD0000000048040024302C000805
:1002E000034B0360034B0B6080231360704700BF18
:1002F000600600246004002430B589B00024039413
:100300000494059406940794154BD3F8E02042F02A
:100310008002C3F8E020D3F8E02002F080020192CE
:10032000019AD3F8E02042F00102C3F8E020D3F8AC
:10033000E03003F001030293029B0A4D22460221A2
:10034000284600F06FFC02230393012204920594D7
:10035000069303A9284600F055FB09B030BD00BF45
:10036000004402580000025800B583B001F002FDBD
:100370000B4B01930223009300234FF400720949B1
:10038000094802F00EF9012804D001F015FD03B070
:100390005DF804FB054B186802F038F9F5E700BF7B
:1003A000B8060024482C0008B1030008B406002455
:1003B00008B5094C00220221204600F033FCC82079
:1003C00002F0DEFA01220221204600F02BFCC820B8
:1003D00002F0D6FAEDE700BF0000025810B584B075
:1003E0000024009401940294039400F0BDFA0123C8
:1003F0008DF800308DF801404FF01052019212221A
:100400008DF808208DF809408DF80A3003228DF808
:100410000B208DF80C408DF80D408DF80E308DF8C6
:100420000F30684600F0BEFA042000F0ABFA04B0CA
:1004300010BD000008B50268034B9A4200D008BD09
:1004400000F024FAFBE700BF0000014072B6FEE7AF
:1004500000B59FB04C2200210BA802F027FB202200
:10046000002103A802F022FB022000F0E1FB0023A0
:100470000093384BDA6A22F00102DA62DB6A03F099
:1004800001030093344B9A6942F440429A619B699C
:1004900003F440430093009B2F4B9B6913F4005FD0
:1004A000FAD02E4BD3F8F42042F00202C3F8F42025
:1004B000D3F8F43003F002030193019B002302936D
:1004C000254B9A6942F440429A619B6903F4404388
:1004D0000293204BDA6A42F00102DA62DB6A03F02F
:1004E00001030293029B1C4B9B6913F4005FFAD03B
:1004F00001230B934FF480330C9302231493159331
:100500001693F0221792189319931A9308231B93AA
:1005100000231C931D930BA800F0B4FBB0B93F233C
:100520000393032304930023059308230693402396
:10053000079308934FF4806209920A93042103A859
:1005400000F0F4FF20B91FB05DF804FBFFF77EFF59
:10055000FFF77CFF0004005800480258004402588E
:1005600010B582B0FFF73AFF2D4B5B6913F4003FE3
:1005700013D1BFF34F8FBFF36F8F294B0022C3F806
:100580005022BFF34F8FBFF36F8F5A6942F400328E
:100590005A61BFF34F8FBFF36F8F214B5B6913F429
:1005A000803F27D11E4B0022C3F88420BFF34F8F1A
:1005B000D3F88040C4F34E3000E01846C4F3C902BB
:1005C00043F6E07303EA401343EA82731449C1F827
:1005D00060321346013A002BF2D1431E0028ECD1C1
:1005E000BFF34F8F4B6943F480334B61BFF34F8FA1
:1005F000BFF36F8F00F01CF9FFF72AFFFFF77CFEB7
:10060000084B01930123009300234FF40072064925
:10061000064801F0C6FF0128F2D102F067F8EFE7C3
:1006200000ED00E0B4060024542C00086903000823
:1006300000B583B00A4BD3F8F42042F00202C3F8AD
:10064000F420D3F8F43003F002030193019B00225D
:100650000F216FF0010000F043F903B05DF804FBD7
:10066000004402580F2801D90120704710B58AB004
:10067000044600220146192000F032F9192000F04A
:1006800065F9174B1C60174BD3F8F02042F00102BC
:10069000C3F8F020D3F8F03003F001030093009B7F
:1006A00001A902A801F0C0F801F0ACF843000E481F
:1006B000A0FB03239B0C013B0C480D4A026040F257
:1006C000E732C260436000230361836001F074FA83
:1006D00010B101200AB010BD044801F0D1F8F9E7CB
:1006E0000C0000240044025883DE1B43BC06002497
:1006F00000000140FEE7FEE7FEE7FEE7FEE7704789
:1007000008B5024801F008F908BD00BFBC06002486
:10071000274AD2F8883043F47003C2F88830254B5A
:100720001B6803F00F03062B06D8224A136823F038
:100730000F0343F0070313601F4B1A6842F00102D6
:100740001A6000221A6119681C4A0A401A60194B83
:100750001B6813F0080F06D0164A136823F00F0326
:1007600043F007031360144B00229A61DA611A62A6
:10077000134999621349D962134919635A639963FA
:10078000DA6319645A64196821F4802119601A66C1
:100790000E4B1A680E4B1340B3F1005F03D20D4BA2
:1007A0000122C3F808210C4B43F2D2021A607047B1
:1007B00000ED00E000200052004402587FEDF6EA10
:1007C000000202020000FF01800201010010005C33
:1007D0000000FFFF0080005100400052DFF834D0DD
:1007E000FFF796FF0C480D490D4A002302E0D4584C
:1007F000C4500433C4188C42F9D30A4A0A4C00236B
:1008000001E013600432A242FBD302F02BF9FFF7A0
:10081000A7FE7047000008240000002444040024C0
:100820008C2C00084404002464440024FEE70000EB
:1008300010B5032000F042F800F07EFD0F498B69EF
:10084000C3F303230E4AD35C03F01F03D8408B6924
:1008500003F00F03D35C03F01F0320FA03F3094AEC
:100860001360094B18600020FFF7FCFE10B1012453
:10087000204610BD0446FFF7DBFEF9E700440258AE
:10088000642C00080400002400000024034B1B78A3
:10089000034A11680B441360704700BF080000242E
:1008A00008070024014B1868704700BF08070024A0
:1008B000014B1868000C70470010005C0649CB68BB
:1008C00023F4E0631B041B0C000200F4E06003430C
:1008D000024A1A43CA60704700ED00E00000FA05C2
:1008E00000B5174BDB68C3F30223C3F1070CBCF15F
:1008F000040F28BF4FF0040C03F1040EBEF1060FE5
:1009000014D9033B4FF0FF3E0EFA0CFC21EA0C0118
:1009100099400EFA03F322EA03031943002807DB88
:100920000901C9B2074B19545DF804FB0023E9E73C
:1009300000F00F000901C9B2034B1954F4E700BFDE
:1009400000ED00E000E400E014ED00E0002807DB2B
:1009500000F01F02400901239340024A42F8203070
:10096000704700BF00E100E0BFF35F8F044B5A6A9D
:1009700022F480325A620022C3F89420704700BFEC
:1009800000ED00E040F00100054BC3F894005A6A06
:1009900042F480325A62BFF34F8FBFF36F8F7047BC
:1009A00000ED00E04278164BC3F898200378FBB1C5
:1009B0004368134AC2F89C30017BC37A1B0643EAA2
:1009C0000173817A43EAC143417B43EA8143817BDE
:1009D00043EA4143C17B43EA0143417A43EA0123AD
:1009E000017A43EA410301780B43C2F8A030704713
:1009F000034B0022C3F89C20C3F8A020704700BF1F
:100A000000ED00E0F0B583B000236BE085685E0088
:100A10000324B44025EA0405CC68B4402C43846028
:100A2000446824EA0C0C4C68C4F300149C4044EA6B
:100A30000C04446068E0DD08083550F8256003F0D8
:100A400007044FEA840C0F2404FA0CF426EA040E7F
:100A50000C6904FA0CF444EA0E0440F825406BE0FB
:100A6000092400E0002404FA0EF42C430CF1020CDB
:100A7000694D45F82C404FF0B0442568D44325EA31
:100A800002064F6817F4801F01D042EA05064FF0B6
:100A9000B0452E606D6804EA05064F6817F4001F24
:100AA00001D042EA05064FF0B0456E60D5F884509B
:100AB00004EA05064F6817F4003F01D042EA050634
:100AC0004FF0B045C5F88460D5F880502C404E6892
:100AD00016F4803F01D042EA05044FF0B042C2F85C
:100AE000804001330A6832FA03F400F092804FF03C
:100AF000010C0CFA03FC1CEA0202F2D04C6804F070
:100B00000304013C012C81D94C6804F00304032C3C
:100B10000CD0C4685D004FF0030C0CFA05FC24EA0D
:100B20000C0C8C68AC4044EA0C04C4604C6804F0C3
:100B30000304022C3FF47FAF04684FEA430E4FF0EA
:100B4000030C0CFA0EFC24EA0C0C4C6804F00304B1
:100B500004FA0EF444EA0C0404604C6814F4403FB8
:100B6000BFD02E4CD4F8F45045F00205C4F8F45030
:100B7000D4F8F44004F002040194019C4FEA930C71
:100B80000CF10205244C54F8255003F003044FEAFD
:100B9000840E0F2404FA0EF425EA0405204CA0422A
:100BA0003FF460AF04F58064A04222D004F5806475
:100BB000A04220D004F58064A0421ED004F58064D9
:100BC000A0421CD004F58064A0421AD004F58064D1
:100BD000A04218D004F58064A04216D004F58064C9
:100BE000A04214D004F58064A0423FF439AF0A2437
:100BF00039E7012437E7022435E7032433E70424E7
:100C000031E705242FE706242DE707242BE70824E6
:100C100029E703B0F0BD00BF0004005800440258AB
:100C2000000002580AB18161704709048161704770
:100C3000134BDB6813F0040F07D1114BDB6803F093
:100C4000070383421AD00120704710B50C4AD368BD
:100C500023F007031843D060FFF724FE0446084B37
:100C60005B6813F4005F07D1FFF71CFE001BB0F5B3
:100C70007A7FF4D9012000E0002010BD00207047E9
:100C800000480258002800F0398338B5044603684C
:100C900013F0010F25D0944A136903F03803926AC8
:100CA000102B15D0182B0FD06368B3F5803F3FD0C1
:100CB000002B53D18C4B1A6822F480321A601A68C8
:100CC00022F480221A6038E002F00302022AEBD1FB
:100CD000854B1B6813F4003F03D06368002B00F0C2
:100CE0000F83236813F0020F00F0A1807E4A13697E
:100CF000926A13F038035AD0182B55D0E368002BB2
:100D000000F0DE8078490A6822F0190213430B6074
:100D1000FFF7C8FD0546744B1B6813F0040F40F045
:100D2000AD80FFF7BFFD401B0228F4D90320EEE29F
:100D30006D4A136843F48033136063682BB3FFF785
:100D4000B1FD0546684B1B6813F4003FC9D1FFF79E
:100D5000A9FD401B6428F5D90320D8E2B3F5A02FE4
:100D600009D0614B1A6822F480321A601A6822F4A2
:100D700080221A60E1E75C4B1A6842F480221A6014
:100D80001A6842F480321A60D7E7FFF78BFD0546F8
:100D9000554B1B6813F4003FA3D0FFF783FD401BA6
:100DA0006428F5D90320B2E212F0030FA6D14E4B0E
:100DB0001B6813F0040F03D0E368002B00F0A2823D
:100DC000494A136823F01903E1680B431360FFF7E6
:100DD00069FD0546444B1B6813F0040F06D1FFF76D
:100DE00061FD401B0228F5D9032090E2FFF760FD6A
:100DF00041F20303984212D82269402A07D03A49A7
:100E00004B6823F47C3343EA02334B600FE0364AED
:100E1000536823F47C3343F40033536007E0324AD1
:100E2000536823F0FE43216943EA0163536023685A
:100E300013F0100F00F088802B4A136903F0380379
:100E4000926A082B56D0182B50D0E369002B00F083
:100E5000B880254A136843F080031360FFF722FD32
:100E60000546214B1B6813F4807F40F08880FFF714
:100E700019FD401B0228F4D9032048E2FFF718FDB2
:100E800041F20303984212D82269402A07D016493A
:100E90004B6823F47C3343EA02334B60C7E7124AC2
:100EA000536823F47C3343F400335360BFE70E4AA6
:100EB000536823F0FE43216943EA01635360B6E7B8
:100EC000094A136823F001031360FFF7EBFC0546A2
:100ED000054B1B6813F0040FA9D0FFF7E3FC401B80
:100EE0000228F5D9032012E20044025802F003025E
:100EF000012AAAD1A14B1B6813F4807F03D0E369B8
:100F0000802B40F00182FFF7D3FC41F203039842AB
:100F100012D8226A202A07D098494B6823F0F84358
:100F200043EA82634B600FE0944A536823F0F8432E
:100F300043F08043536007E0904AD36823F07C532A
:100F4000216A43EA0163D360236813F0080F60D07D
:100F50006369002B49D0894A536F43F001035367FB
:100F6000FFF7A0FC0546854B5B6F13F0020F50D1D5
:100F7000FFF798FC401B0228F5D90320C7E1FFF7D3
:100F800097FC41F20303984212D8226A202A07D024
:100F90007A494B6823F0F84343EA82634B60D3E716
:100FA000764A536823F0F84343F080435360CBE71D
:100FB000724AD36823F07C53216A43EA0163D36009
:100FC000C2E76E4A136823F080031360FFF76AFCE0
:100FD00005466A4B1B6813F4807FB5D0FFF762FCAF
:100FE000401B0228F5D9032091E1644A536F23F096
:100FF00001035367FFF756FC0546604B5B6F13F028
:10100000020F06D0FFF74EFC401B0228F5D9032043
:101010007DE1236813F0200F29D0A3699BB1574AC3
:10102000136843F480531360FFF73CFC0546534BB1
:101030001B6813F4005F1AD1FFF734FC401B022831
:10104000F5D9032063E14D4A136823F480531360FC
:10105000FFF728FC0546494B1B6813F4005F06D0D8
:10106000FFF720FC401B0228F5D903204FE123683D
:1010700013F0040F21D1636A002B00F047813F4A2F
:10108000126902F03802182A00F0EE80022B79D0A3
:101090003A4A136823F080731360FFF703FC044699
:1010A000364B1B6813F0007F00F0DC80FFF7FAFB83
:1010B000001B0228F4D9032029E1314A136843F4C4
:1010C00080731360FFF7EEFB05462D4B1B6813F48E
:1010D000807F06D1FFF7E6FB401B6428F5D903208B
:1010E00015E1A368012B0AD00BBB244B1A6F22F029
:1010F00001021A671A6F22F004021A6704E01F4AFD
:10110000136F43F001031367A36833B3FFF7CAFB00
:1011100005461A4B1B6F13F0020FACD1FFF7C2FB51
:10112000401B41F288339842F3D90320EFE0052BAE
:1011300009D0124B1A6F22F001021A671A6F22F0BF
:1011400004021A67E0E70D4B1A6F42F004021A67B7
:101150001A6F42F001021A67D6E7FFF7A3FB0546B4
:10116000064B1B6F13F0020F85D0FFF79BFB401B54
:1011700041F288339842F3D90320C8E00044025872
:1011800000480258694A136823F080731360FFF720
:1011900089FB0546654B1B6813F0007F06D0FFF7FF
:1011A00081FB401B0228F5D90320B0E05F4B996A10
:1011B0005F4A0A40A16AE06A41EA00110A439A6262
:1011C000226B013AC2F30802616B0139490289B20C
:1011D0000A43A16B0139090401F4FE010A43E16BE2
:1011E0000139090601F0FE410A431A63DA6A22F066
:1011F0000102DA62596B4F4A0A40A16C42EAC1020D
:101200005A63DA6A22F00C02216C0A43DA62DA6A63
:1012100022F00202616C0A43DA62DA6A42F4803236
:10122000DA62DA6A42F40032DA62DA6A42F480227E
:10123000DA62DA6A42F00102DA621A6842F0807217
:101240001A60FFF72FFB0446384B1B6813F0007F32
:1012500006D1FFF727FB001B0228F5D9032056E033
:10126000002054E0002052E0304A916A106B012BBC
:101270004ED001F00303A26A93424BD1C1F3051192
:10128000E36A994248D1C0F30802236B013B9A42BA
:1012900044D1C0F34622636B013B9A4240D1C0F374
:1012A0000642A36B013B9A423CD1C0F30660E36B5C
:1012B000013B984238D11D4B5B6BC3F3CC03A26C4E
:1012C0009A4201D1002022E0184AD36A23F0010398
:1012D000D362FFF7E7FA0546FFF7E4FAA842FBD02E
:1012E000124A516B134B0B40A16C43EAC103536389
:1012F000D36A43F00103D362002008E00120704765
:10130000012004E0012002E0012000E0002038BDBF
:101310000120FCE70120FAE70120F8E70120F6E7C9
:101320000120F4E70120F2E70120F0E70044025831
:101330000CFCFFFF0700FFFF744B1B6903F0380331
:10134000102B00F0DE80182B10D00BB170487047C6
:101350006E4B1B6813F0200F00F0D5806B4B1868A4
:10136000C0F3C1006B4B23FA00F0704710B4674A1A
:10137000916A01F00301946AC4F30510D36A03F083
:10138000010C536BC3F3CC030CFB03F307EE903A51
:10139000F8EE677A14F47C7F00F09380012965D021
:1013A000022900F09180E1B107EE100AF8EE476AD9
:1013B0009FED596A86EE267A544B1B6BC3F30803E4
:1013C00006EE903AF8EE666A9FED546A67EE867A0A
:1013D00076EEA77AF7EE006A77EEA67A27EE277AFE
:1013E00060E0136813F0200F23D011461268C2F397
:1013F000C102484BD34007EE103AF8EE476A07EEB9
:10140000100AB8EE476A86EE867A0B6BC3F30803C0
:1014100006EE903AF8EE666A9FED406A67EE867ACD
:1014200076EEA77AF7EE006A77EEA67A27EE277AAD
:1014300038E007EE100AF8EE476A9FED396A86EE4B
:10144000267A324B1B6BC3F3080306EE903AF8EE94
:10145000666A9FED326A67EE867A76EEA77AF7EED5
:10146000006A77EEA67A27EE277A1BE007EE100ACD
:10147000F8EE476A9FED286A86EE267A234B1B6BAF
:10148000C3F3080306EE903AF8EE666A9FED236A0E
:1014900067EE867A76EEA77AF7EE006A77EEA67A9E
:1014A00027EE277A194B1B6BC3F34623013307EE54
:1014B000903AF8EE677AC7EE276AFCEEE67A17EE06
:1014C000900A5DF8044B704707EE100AF8EE476A81
:1014D0009FED146A86EE267A0C4B1B6BC3F3080350
:1014E00006EE903AF8EE666A9FED0C6A67EE867A31
:1014F00076EEA77AF7EE006A77EEA67A27EE277ADD
:10150000D0E7094870470348704700BF00440258BD
:1015100000093D000090D0030024744A0000003907
:101520000024744C0024F44A00127A00002800F0D1
:10153000328170B50D4604469B4B1B6803F00F03C8
:101540008B420BD2984A136823F00F030B431360AE
:10155000136803F00F038B4240F01F81236813F0E0
:10156000040F0CD02269914B9B6903F070039A42DF
:1015700005D98E498B6923F070031A438A61236869
:1015800013F0080F0CD06269884BDB6903F070031D
:101590009A4205D98549CB6923F070031A43CA6181
:1015A000236813F0100F0CD0A269804BDB6903F4A1
:1015B000E0639A4205D97D49CB6923F4E0631A437D
:1015C000CA61236813F0200F0CD0E269774B1B6AC5
:1015D00003F070039A4205D974490B6A23F0700333
:1015E0001A430A62236813F0020F0CD0E2686F4BB3
:1015F0009B6903F00F039A4205D96C498B6923F06C
:101600000F031A438A61236813F0010F41D0674A20
:10161000936923F47063A1680B4393616368022BA1
:101620000AD0032B27D0012B2CD0604A126812F06D
:10163000040F06D10120ADE0126812F4003F00F063
:10164000AE805A490A6922F0070213430B61FFF783
:1016500029F90646554B1B6903F038036268B3EB62
:10166000C20F16D0FFF71EF9801B41F28833984253
:10167000F0D903208EE04D4A126812F0007FE0D1CD
:10168000012087E0494A126812F4807FD9D10120F5
:1016900080E0236813F0020F0CD0E268434B9B6993
:1016A00003F00F039A4205D240498B6923F00F03E0
:1016B0001A438A613C4B1B6803F00F03AB420AD903
:1016C000394A136823F00F032B431360136803F0A8
:1016D0000F03AB4265D1236813F0040F0CD02269CD
:1016E000324B9B6903F070039A4205D22F498B69F4
:1016F00023F070031A438A61236813F0080F0CD09B
:1017000062692A4BDB6903F070039A4205D22749CC
:10171000CB6923F070031A43CA61236813F0100FDA
:101720000CD0A269214BDB6903F4E0639A4205D235
:101730001E49CB6923F4E0631A43CA61236813F09E
:10174000200F0CD0E269194B1B6A03F070039A4218
:1017500005D216490B6A23F070031A430A62FFF799
:10176000EBFD12498B69C3F30323114AD35C03F0E9
:101770001F03D8408B6903F00F03D35C03F01F03F2
:1017800020FA03F30B4A13600B4B18600B4B1868DD
:10179000FEF768FF70BD012070470120FAE70120C5
:1017A000F8E70120F6E700BF00200052004402588D
:1017B000642C000804000024000000240C00002415
:1017C00008B5FFF7B9FD0B4A9369C3F303230A4930
:1017D000CB5C03F01F0320FA03F3926902F00F02BF
:1017E000885C00F01F0023FA00F0044A1060044AED
:1017F000136008BD00440258642C00080400002453
:101800000000002408B5FFF7DBFF054BDB69C3F3DD
:101810000223044AD35C03F01F03D84008BD00BF75
:1018200000440258642C00083F230360114B1A69DE
:1018300002F0070242609A6902F4706282609A695B
:1018400002F00F02C2609A6902F070020261DA6966
:1018500002F070024261DA6902F4E06282611B6A9E
:1018600003F07003C361044B1B6803F00F030B60AC
:10187000704700BF0044025800200052704700002B
:1018800090F83D30DBB2012B3AD1022380F83D3095
:101890000268D36843F00103D36003681A4AB3F1C6
:1018A000804F18BF93421DD0A2F57C42934219D0BD
:1018B00002F58062934215D002F58062934211D006
:1018C00002F5784293420DD0A2F56C42934209D0C2
:1018D00002F59432934205D01A6842F001021A6070
:1018E000002070479968094A0A40062A18BFB2F5D5
:1018F000803F07D01A6842F001021A60002070474A
:1019000001207047002070470000014007000100DF
:10191000704770477047704710B5044603681A69EE
:1019200012F0020F11D0DA6812F0020F0DD06FF032
:1019300002021A610123037703689B6913F0030F06
:1019400079D0FFF7E6FF0023237723681A6912F0A6
:10195000040F12D0DA6812F0040F0ED06FF00402F8
:101960001A610223237723689B6913F4407F68D0B0
:101970002046FFF7CEFF0023237723681A6912F071
:10198000080F12D0DA6812F0080F0ED06FF00802BC
:101990001A61042323772368DB6913F0030F57D000
:1019A0002046FFF7B6FF0023237723681A6912F059
:1019B000100F12D0DA6812F0100F0ED06FF0100274
:1019C0001A61082323772368DB6913F4407F46D02C
:1019D0002046FFF79EFF0023237723681A6912F041
:1019E000010F03D0DA6812F0010F3FD123681A69A2
:1019F00012F0800F03D0DA6812F0800F3DD1236817
:101A00001A6912F4807F03D0DA6812F0800F3BD19C
:101A100023681A6912F0400F03D0DA6812F0400F01
:101A200039D123681A6912F0200F03D0DA6812F056
:101A3000200F37D110BDFFF76BFF2046FFF76AFF7D
:101A400081E72046FFF764FF2046FFF763FF92E738
:101A50002046FFF75DFF2046FFF75CFFA3E7204627
:101A6000FFF756FF2046FFF755FFB4E76FF001027E
:101A70001A612046FEF7DEFCB8E76FF080021A61BB
:101A8000204600F0CAF8BAE76FF480721A61204667
:101A900000F0C4F8BCE76FF040021A612046FFF77F
:101AA0003AFFBEE76FF020021A61204600F0B4F85A
:101AB000C0E7000030B50368394A904214BF4FF0C8
:101AC000000E4FF0010EB0F1804F14BF72464EF081
:101AD0000102AAB9334CA04214BF00240124324DA4
:101AE000A8420DD064B904F1804404F58234A042C8
:101AF00014BF0024012405F50065A84200D01CB1E4
:101B000023F070034C68234312BB264A904214BF53
:101B100000220122244CA0421AD0CAB902F180420C
:101B200002F58232904214BF0022012204F50064C3
:101B3000A0420DD062B91D4A904214BF002201227A
:101B400004F59A34A04203D012B9194A904204D144
:101B500023F4407CCB6843EA0C0323F080034A69FA
:101B6000134303608A68C2620A688262114A904223
:101B700014BF73464EF0010363B90C4B984214BF77
:101B80000023012302F57052904203D013B9084B91
:101B9000984201D10B6903630123436130BD00BF4B
:101BA00000000140000800400004004000440140E3
:101BB000004801400004014060B310B5044690F8AD
:101BC0003D3013B3022384F83D30214651F8040B15
:101BD000FFF770FF012384F8483084F83E3084F822
:101BE0003F3084F8403084F8413084F8423084F843
:101BF000433084F8443084F8453084F8463084F823
:101C0000473084F83D30002010BD80F83C30FFF7AD
:101C100035FED7E70120704770477047704700F1E5
:101C2000080343604FF0FF328260C360036100230A
:101C30000360704700230361704743684B609A68F4
:101C40008A605160996008610368013303607047DE
:101C500030B40D68B5F1FF3F11D000F108031C4608
:101C60005B681A68AA42FAD963684B6099608C6015
:101C70006160086103680133036030BC7047046928
:101C8000F2E70369416882688A60416851605A6876
:101C9000824206D0002202611A68013A1A6018686E
:101CA000704782685A60F5E782B0002301930D4BBC
:101CB0001B68B3F1FF3F08D04FF0500383F3118846
:101CC000BFF36F8FBFF34F8FFEE74FF0500383F3E7
:101CD0001188BFF36F8FBFF34F8F019B002BFCD098
:101CE00002B070471000002408480068006880F3C4
:101CF00008884FF0000080F3148862B661B6BFF325
:101D00004F8FBFF36F8F00DF00BF000008ED00E0D2
:101D1000DFF80C00016841F47001016070470000B9
:101D200088ED00E04FF0807340F8043C21F00101A1
:101D300040F8081C054B40F80C3C40F8202C6FF094
:101D4000020340F8243C4438704700BFA91C000837
:101D5000074B19680868B0E8F04F80F30988BFF3B3
:101D60006F8F4FF0000080F311887047AFF3008051
:101D7000344300244FF0500383F31188BFF36F8F77
:101D8000BFF34F8F0B4A136801331360012B00D050
:101D900070474FF0E023D3F8043D13F0FF0FF7D066
:101DA0004FF0500383F31188BFF36F8FBFF34F8F52
:101DB000FEE700BF10000024094B1B6843B94FF039
:101DC000500383F31188BFF36F8FBFF34F8FFEE78C
:101DD000013B034A13600BB983F31188704700BFBE
:101DE00010000024000000000000000000000000BF
:101DF000EFF30980BFF36F8F154B1A681EF0100FB9
:101E000008BF20ED108A20E9F04F10602DE909008D
:101E10004FF0500080F31188BFF34F8FBFF36F8FE7
:101E200000F0D4FD4FF0000080F3118809BC196860
:101E30000868B0E8F04F1EF0100F08BFB0EC108A31
:101E400080F30988BFF36F8F704700BFAFF3008046
:101E50003443002408B54FF0500383F31188BFF3D7
:101E60006F8FBFF34F8F00F083FC28B14FF0E0235A
:101E70004FF08052C3F8042D002383F3118808BD6E
:101E80004FF0E022002313619361054B1B68054965
:101E9000A1FB03139B09013B5361072313617047A7
:101EA00000000024D34D62104FF0E023D3F8002D42
:101EB0003D4B9A421CD04FF0E023D3F8002D3B4B12
:101EC0009A421ED030B583B0394B1A78D2B2019203
:101ED000FF221A701B78DBB28DF803309DF80330B7
:101EE00003F05003334A1370334B07221A601BE090
:101EF0004FF0500383F31188BFF36F8FBFF34F8F01
:101F0000FEE74FF0500383F31188BFF36F8FBFF3E9
:101F10004F8FFEE7284A1368013B13609DF803309A
:101F20005B00DBB28DF803309DF8033013F0800FB7
:101F3000F0D1214B1B68032B08D04FF0500383F3E3
:101F40001188BFF36F8FBFF34F8FFEE71B021A4A52
:101F5000136003F4E0631360019BDBB2144A137057
:101F60004FF0E024D4F8203D43F47003C4F8203D42
:101F7000D4F8203D43F07043C4F8203DFFF780FFC4
:101F800000250E4B1D60FFF7C3FED4F8343F43F02D
:101F90004043C4F8343FFFF7A7FE00F017FDFFF7FA
:101FA00083FE284603B030BD71C20F4170C20F419D
:101FB00000E400E00C0700241007002410000024B7
:101FC000124A12F0070F1ED0D11D21F00701C1F5F2
:101FD000705313440A460E480260002141601344C6
:101FE000083B23F007030B48036059601960991AF6
:101FF00051601360084B1960084B1960084B4FF093
:1020000000421A6070474FF47053E4E71807002449
:102010002C43002414070024204300241C430024E4
:1020200018430024164B1A461B688342FBD35168A1
:1020300002EB010C844509D0416800EB010C6345BB
:1020400009D00360904219D0106070474068014485
:1020500051601046F0E710B40A4C2468A3420BD03C
:102060005B681944416013681B680360904200D0AC
:1020700010605DF8044B70470460F7E7704700BFDD
:102080002C4300241407002470B5054600F068FBBB
:10209000364B1B68A3B1364B1B681D424ED135B180
:1020A000083515F0070F02D025F007050835002D7B
:1020B00046D0304B1B68AB4251D32F4A146804E022
:1020C000FFF77EFFE7E722461C466368AB4202D279
:1020D0002368002BF7D1254B1B68A34241D016681B
:1020E00008362368136063685B1B102B10D96019D6
:1020F00010F0070F08D04FF0500383F31188BFF39F
:102100006F8FBFF34F8FFEE743606560FFF78AFF75
:10211000626818490B689B1A0B60184909688B4262
:1021200001D216490B60124B1B68134363600023F6
:102130002360134A13680133136002E0002600E0B5
:10214000002600F0A1FB16F0070F0CD04FF0500353
:1021500083F31188BFF36F8FBFF34F8FFEE7002625
:10216000EFE70026EDE7304670BD00BF14070024FE
:10217000184300241C4300242C4300242043002443
:1021800024430024002834D038B50446A0F10805C3
:1021900050F8043C174A1268134208D14FF050031C
:1021A00083F31188BFF36F8FBFF34F8FFEE750F8B3
:1021B000081C41B14FF0500383F31188BFF36F8FB8
:1021C000BFF34F8FFEE723EA020340F8043C00F020
:1021D000C7FA54F8041C084A13680B4413602846D5
:1021E000FFF720FF054A13680133136000F04CFB32
:1021F00038BD7047184300241C43002428430024A2
:10220000084B1B681B6823B9074B4FF0FF321A605D
:102210007047044B1B68DB68DB685A68024B1A6026
:10222000704700BF384300240C4400242DE9F047D8
:1022300007469846089DDDF824900A9C266B6FF0AF
:102240004043134406EB830626F0070600293AD0E4
:102250008E464FF0000CBCF10F0F0BD81EF80C206F
:1022600004EB0C0383F834201EF80C3013B10CF18E
:10227000010CF0E7002384F84330062D00D9062531
:10228000E56265644FF0000AC4F848A0201DFFF71E
:10229000D1FC04F11800FFF7CDFC2461C5F107055E
:1022A000A5616462C4F84CA084F850A04246394647
:1022B0003046FFF737FD2060B9F1000F01D0C9F8B3
:1022C0000040BDE8F087002384F83430D5E70000F3
:1022D00038B5002407E004EB840293000E4818444C
:1022E000FFF79DFC0134062CF5D90C4D2846FFF76D
:1022F00096FC0B4C2046FFF792FC0A48FFF78FFC38
:102300000948FFF78CFC0948FFF789FC084B1D6062
:10231000084B1C6038BD00BF40430024E04300244C
:10232000F44300241844002444440024304400248E
:10233000384300243C43002410B50446FFF71AFD3F
:10234000214A136801331360204B1B685BB1204B9B
:102350001B686BB91D4B1B68DA6AE36A9A4207D89F
:102360001A4B1C6004E0194B1C601368012B28D029
:10237000184A136801331360E06A01238340164A48
:1023800011680B43136000EB8000211D134B03EB1E
:102390008000FFF752FCFFF70FFD0D4B1B687BB170
:1023A0000A4B1B68DA6AE36A9A4209D24FF0E023CB
:1023B0004FF08052C3F8042DBFF34F8FBFF36F8FE0
:1023C00010BDFFF785FFD3E7CC430024344300243E
:1023D0002C440024D8430024DC4300244043002440
:1023E00010B5044690F8513063B1012B11D0022B87
:1023F0000ED04FF0500383F31188BFF36F8FBFF3FC
:102400004F8FFEE7006BFFF7BDFE2046FFF7BAFED9
:1024100010BDFFF7B7FEFBE70F4B1B68D3B110B53C
:10242000FFF7A8FC0D4BDB68DC68201DFFF729FCDB
:102430000B4A1368013B1360074A1368013B1360A2
:10244000FFF7BAFC2046FFF7CBFF034B1B68002BBE
:10245000E6D110BD704700BFD0430024444400249F
:10246000CC43002408B5FFF7D7FF074B1B68012BAF
:10247000F9D94FF0E0234FF08052C3F8042DBFF399
:102480004F8FBFF36F8FEEE74043002470B50446D3
:102490000D461F4B1E681F4B18680430FFF7F1FBF9
:1024A00050B91C4B1B68DA6A012303FA02F21A497D
:1024B0000B6823EA02030B60B4F1FF3F14BF002353
:1024C0000123002D08BF00236BB93444114B1B6856
:1024D0005C60A6420ED9114B18680E4B1968043186
:1024E000FFF7B6FB70BD0B4B196804310C48FFF7C2
:1024F000A4FBF7E70B4B1868064B19680431FFF78C
:10250000A7FB094B1B68A342ECD9074B1C60E9E70A
:102510005844002434430024DC4300243C4300247A
:1025200030440024384300240C44002430B587B0E4
:102530000B9C7CB10C9DB5B154250495049D542D84
:102540001AD04FF0500383F31188BFF36F8FBFF39E
:102550004F8FFEE74FF0500383F31188BFF36F8F67
:10256000BFF34F8FFEE74FF0500383F31188BFF3A3
:102570006F8FBFF34F8FFEE7049D0C9D2C630224E9
:1025800085F8514000240394029505AC01940A9CFF
:102590000094FFF74BFE0C98FFF7CEFE059807B0AE
:1025A00030BD2DE9F04385B00746884614461E46E7
:1025B0009000FFF769FD00B381465420FFF764FDEA
:1025C0000546B0B1C0F83090E5B1002385F8513030
:1025D000039302950D9B01930C9B00933346224677
:1025E00041463846FFF722FE2846FFF7A5FE0120A8
:1025F00005E04846FFF7C6FDE6E74FF0FF3005B0BF
:10260000BDE8F0834FF0FF30F9E7000038B504462D
:10261000FFF7B0FB002C33D0251D2846FFF731FB18
:1026200068B9E26A02EB82039B002749CB5833B9B1
:102630000123934025490A6822EA03020A60A36A3B
:102640001BB104F11800FFF71CFB214A136801338A
:102650001360204B1B68A34215D01F4A1368013B2F
:1026600013602046FFF7BCFEFFF7CAFDFFF7A4FB8F
:102670001A4B1B681BB1174B1B68A3420CD038BD0B
:10268000144B1C68C8E729461548FFF7D6FA154AC7
:10269000136801331360E9E7134B1B6843B14FF034
:1026A000500383F31188BFF36F8FBFF34F8FFEE7A3
:1026B0004FF0E0234FF08052C3F8042DBFF34F8F4B
:1026C000BFF36F8FDBE700BF40430024DC430024EF
:1026D000D843002434430024CC4300242C44002459
:1026E00044440024D0430024D443002410B588B0CF
:1026F00000240594069407AA06A905A8FDF7F0FD95
:10270000059B0293069B019300942346079A0E496A
:102710000E48FFF70BFF0E4B186090B14FF05003BF
:1027200083F31188BFF36F8FBFF34F8F094B4FF0C7
:10273000FF321A60084B01221A60084B1C60FFF739
:10274000B3FB08B010BD00BF742C0008652400085E
:10275000084400240C4400242C4400245844002441
:10276000024A136801331360704700BFD44300244A
:10277000F8B53A4B1B68002B69D1394B1D68013500
:102780001D60C5B9374B1B681B6843B14FF0500340
:1027900083F31188BFF36F8FBFF34F8FFEE7314A8A
:1027A0001168314B186810601960304A13680133A2
:1027B0001360FFF725FD2E4B1B68AB423DD9002768
:1027C0002C4B1B68DB6A03EB83039A002A4B9B5854
:1027D000012B00D90127294B1B68002B3CD0012776
:1027E0003AE001271F4B1B681B6843B31D4B1B6856
:1027F000DB68DC6863689D4226D3261D3046FFF700
:1028000040FAA36A1BB104F11800FFF73AFAE36A31
:1028100001229A401A49086802430A6003EB8303C5
:102820009A00314614481044FFF707FAE26A114B48
:102830001B68DB6A9A42D4D2D4E70027D2E70C4B5C
:102840004FF0FF321A60BBE7094A1360B8E70D4A40
:1028500013680133136000273846F8BDD4430024C1
:1028600058440024384300243C43002410440024EE
:102870000C44002434430024404300245C440024DE
:10288000DC4300241444002438B5354B1B6843B99D
:102890004FF0500383F31188BFF36F8FBFF34F8F57
:1028A000FEE7FFF767FA2E4B1A68013A1A601B68B9
:1028B000002B4FD12B4B1B680BB900244BE000249D
:1028C000294B1B681BB3284BDB68DC6804F118003C
:1028D000FFF7D7F9251D2846FFF7D3F9E06A012352
:1028E0008340224A11680B43136000EB80002946A5
:1028F0001F4B03EB8000FFF7A0F9E26A1D4B1B683A
:10290000DB6A9A42DCD31C4B01221A60D8E70CB177
:10291000FFF776FC194B1C6884B9174B1C68D4B1BF
:102920004FF0E0234FF08052C3F8042DBFF34F8FD8
:10293000BFF36F8F01240EE0013C07D0FFF718FFB3
:102940000028F9D00C4B01221A60F5E70B4B00224E
:102950001A60E2E70024FFF72FFA204638BD00BFD7
:10296000D4430024CC43002418440024DC43002436
:1029700040430024344300245C44002414440024D5
:1029800010B5A8B10446104B1B6843B14FF050037B
:1029900083F31188BFF36F8FBFF34F8FFEE7FFF70D
:1029A000DFFE00212046FFF771FDFFF76DFF48B9FC
:1029B0004FF0E0234FF08052C3F8042DBFF34F8F48
:1029C000BFF36F8F10BD00BFD4430024204B1B68A2
:1029D0001BB1204B01221A6070471E4B00221A6067
:1029E0001D4B1B68B3FA83F3DBB2C3F11F0303EB88
:1029F00083018A0019498A5842B94FF0500383F382
:102A00001188BFF36F8FBFF34F8FFEE7134903EBBE
:102A1000830082000A4450684068506003EB830CD6
:102A20004FEA8C0208321144884209D003EB830339
:102A30009A000A4B13445B68DA68094B1A607047C6
:102A4000406862469100054A0A445060EEE700BFC4
:102A5000D44300245C440024DC430024404300248D
:102A60003443002470B50D4E0D4D761BB61006D0C4
:102A7000002455F8043B01349847A642F9D1094E89
:102A8000094D761B00F0D4F8B61006D0002455F896
:102A9000043B01349847A642F9D170BD802C000850
:102AA000802C0008882C0008802C0008830730B593
:102AB00048D0541E002A3FD0CAB2034601E0013C70
:102AC0003AD303F8012B9D07F9D1032C2DD9CDB2B0
:102AD00045EA05250F2C45EA054536D9A4F1100233
:102AE00022F00F0C03F1200EE6444FEA121C03F112
:102AF000100242E9045542E9025510327245F8D1FC
:102B00000CF1010214F00C0F03EB021204F00F0C95
:102B100013D0ACF1040323F003030433134442F84D
:102B2000045B9342FBD10CF003042CB1CAB21C44E9
:102B300003F8012B9C42FBD130BD64461346002CA8
:102B4000F4D1F9E703461446BFE71A46A446E0E786
:102B5000024B13B1024800F005B8704700000000B6
:102B6000712B0008002301461A46184600F01AB8D7
:102B700038B5084B084D5B1B9C1007D0043B1D4427
:102B8000013C55F804399847002CF9D1BDE838408C
:102B900000F054B88C2C0008882C0008704700BF47
:102BA000704700BF2DE9F047DFF880A00646DAF84D
:102BB000000098460F469146FFF7F0FF1A4B1B683E
:102BC000D3F8484124B365681F2D26DC5EB96B1C21
:102BD0000235DAF80000636044F82570FFF7E0FF83
:102BE0000020BDE8F08704EB85010123C1F888903F
:102BF000D4F88821AB401A43022EC4F88821C1F8CA
:102C00000881E4D1D4F88C211343C4F88C31DEE779
:102C100003F5A674C3F84841D5E7DAF80000FFF7DA
:102C2000BFFF4FF0FF30DCE77C2C0008400400249D
:102C3000F8B500BFF8BC08BC9E467047F8B500BFA9
:082C4000F8BC08BC9E46704779
:102C48004C45445F5461736B000000004170705440
:102C580061736B43726561746500000000000000D9
:102C680001020304010203040607080949444C450C
:082C7800000000001800002418
:082C8000512B0008C5020008F9
:042C8800A10200089D
:102C8C000090D0030090D003010000001000000061
:102C9C00AAAAAAAA00000000000000000403002455
:102CAC006C030024D403002400000000000000008A
:102CBC000000000000000000000000000000000008
:102CCC0000000000000000000000000000000000F8
:102CDC0000000000000000000000000000000000E8
:102CEC0000000000000000000000000000000000D8
:102CFC0000000000000000000000000000000000C8
:102D0C0000000000000000000000000000000000B7
:102D1C0000000000000000000000000000000000A7
:102D2C000000000000000000000000000000000097
:102D3C000000000000000000000000000000000087
:102D4C0001000000000000000E33CDAB34126DE624
:102D5C00ECDE05000B00000000000000000000008D
:102D6C000000000000000000000000000000000057
:102D7C000000000000000000000000000000000047
:102D8C000000000000000000000000000000000037
:102D9C000000000000000000000000000000000027
:0430CC006044002438
:04000005080007DD0B
:00000001FF
